:020000040000FA
:020000001828BE
:040002000034003492
:08000800A000030EA1008B1CF7
:100010000E288B1022150511061713280B11230823
:10002000810020308606210E8300A00E200E0900DC
:100030008316903085009F3086008130810090309B
:100040008B00831207309F00051485140515851554
:1000500006138612A20105142210861831280510F5
:1000600022148514A210861937288510A214061AA6
:100070002B28A20803194A2822194528C230A300B8
:100080008B166E208B1286122B2805152211061353
:100090006E202B286430A3008B166E208B128612E4
:1000A000851186185A280510221406175930A30006
:1000B0008B166228861962288510A21406175930FB
:1000C000A3008B16061A5128A2086E2003192428B3
:1000D00005148514051506138B1251280430A6004B
:1000E000C830A500FA30A40000000000A40B74285A
:1000F000A50B7228A60B702808000530A7007020F9
:06010000A60B7D2808009B
:02400E00213F50
:00000001FF
